:100000000C9489030C94D0030C94D0030C94D0036B
:100010000C94D0030C94D0030C94D0030C94D00314
:100020000C94D0030C94D0030C9482290C94552A80
:100030000C94E71F0C94D0030C94D0030C94D003C1
:100040000C94D0030C94D0030C94D0030C94D003E4
:100050000C94D0030C944F200C94D0030C94D00338
:100060000C94D0030C94D0030C94D0030C94D003C4
:100070000C94D0030C94D0030C94D0030C94D003B4
:100080000C94D0030C94D0030C94D0030C94D003A4
:100090000C94D0030C94D0030C94D0030C94D00394
:1000A0000C94D0030C94D0030C94D00329002B00A3
:1000B000E100E100354200001E00140004001D6153
:1000C0006400E2001F001A0016001B00E104E300B8
:1000D00020000800074206005000280021001500FB
:1000E000094119434F004D00220017000A00050086
:1000F000000065642E00015300002A0000004A0041
:100100004F00015300004C000000E20023001C00DF
:100110000B00110000002961240018000D4110435C
:1001200051004B0025000C000E42360052002C00FE
:10013000260012000F0037002F00E30027001300F5
:100140003300386130002B002D002F003400E50013
:100150000151000029000100010001000100000020
:100160003A001E0221022202010001003B000F049E
:1001700024022302010001003C0025042502220480
:10018000010001003D0026042602230401000100B5
:100190003E0024043100350200000100010001008E
:1001A000000001000000010001000100000001004A
:1001B000000001003F00310264000804000001005B
:1001C0004000240021001E00010001004100250024
:1001D00022001F00370001004200260023002000FB
:1001E0002700010043003002300024060100010016
:1001F00044002E0001000100010000000100010088
:1002000001000100010000000100010001000100E7
:100210000100010001000100F200010001004C009A
:100220000100F000F1000100F400280001000100CD
:10023000F3000100F50001000100010001000100D0
:1002400000000100010001000000010000000100A9
:100250000100010000000100000001000100010098
:100260000100010000000100010001005000AC008D
:10027000A9000100010052005100AB00AA002800B3
:10028000010001004F000100A8002A000100010048
:1002900001000100AE0001000100010001000100A9
:1002A0000100000029000100010001000100000020
:1002B0003A003A003E004200010001003B003B00D2
:1002C0003F004300010001003C003C0040004400AE
:1002D000010001003D003D0041004500010001001A
:1002E0003E000100010001000000010001000100CA
:1002F00000000100000001000100010000000100F9
:10030000000001003F003102640008040000010009
:100310004000240021001E002700010041002500AC
:1003200022001F00270001004200260023002000B9
:1003300036000100430030023000010001000100DE
:1003400044002E0001000100010000006801F000DF
:10035000B40078005A00643214643214783C1E1ED3
:10036000140A050000000001010102020304050552
:100370000607090A0B0C0E0F1112141517191B1D75
:100380001F212325282A2C2F313436393B3E414367
:1003900046494C4F5255585A5D6164676A6D707397
:1003A00076797C7F8386898C8F9295989B9EA2A577
:1003B000A7AAADB0B3B6B9BCBEC1C4C6C9CBCED076
:1003C000D3D5D7DADCDEE0E2E4E6E8EAEBEDEEF006
:1003D000F1F3F4F5F6F8F9FAFAFBFCFDFDFEFEFE8A
:1003E000FFFFFFFFFFFFFFFEFEFEFDFDFCFBFAFA35
:1003F000F9F8F6F5F4F3F1F0EEEDEBEAE8E6E4E215
:10040000E0DEDCDAD7D5D3D0CECBC9C6C4C1BEBC02
:10041000B9B6B3B0ADAAA7A5A29E9B9895928F8CB2
:10042000898683807C797673706D6A6764615D5AB2
:100430005855524F4C494643413E3B393634312F93
:100440002C2A282523211F1D1B1917151412110FE3
:100450000E0C0B0A0907060505040302020101013F
:100460000000000000000000010101010101010184
:100470000102020202020202020203030303030357
:100480000303040404040404050505050506060623
:10049000060607070707080808080909090A0A0ADB
:1004A0000A0B0B0B0C0C0C0D0D0D0E0E0F0F0F107D
:1004B0001011111112121313141415151616171703
:1004C000181819191A1A1B1C1C1D1D1E1F1F20206D
:1004D0002122222324252526272728292A2B2B2CB5
:1004E0002D2E2F2F30313233343536363738393AD6
:1004F0003B3C3D3E3F4041424344464748494A4BCE
:100500004C4D4F50515253555657585A5B5C5E5F95
:10051000606263646667696A6C6D6E70717374762D
:1005200078797B7C7E8081838486888A8B8D8F918D
:10053000929496989A9B9D9FA1A3A5A7A9ABADAFB6
:10054000B1B3B5B7B9BBBDBFC1C4C6C8CACCCFD1A2
:10055000D3D6D8DADCDFE1E4E6E8EBEDF0F2F5F74C
:10056000FAFCFF16034500720067006F0044006F3D
:10057000007800200045005A000000160345007274
:100580000067006F0044006F007800200045005AAB
:100590000000000403090409026D00040100A0FA30
:1005A00009040000010301010009211101000122D9
:1005B00040000705810308000A0904010001030146
:1005C0000200092111010001224D000705820308E4
:1005D000000A0904020001030000000921110100C2
:1005E000012236000705830308000A0904030001FD
:1005F00003000000092111010001223900070584D0
:10060000032000011201100100000008EDFE071395
:1006100001000102000105010906A101050719E019
:1006200029E71500250195087501810205081901C2
:10063000290595057501910295017503910105073D
:10064000190029F71500250195F875018102C005EB
:10065000010980A10185021601002603001A81000C
:100660002A8300751095018100C0050C0901A101C4
:100670008503160100269C021A01002A9C027510AF
:1006800095018100C005010902A1010901A1000530
:1006900009190129051500250195057501810295A6
:1006A00001750381010501093009311581257F9507
:1006B000027508810609381581257F950175088125
:1006C00006050C0A38021581257F950175088106FB
:1006D000C0C005010906A101050719E029E71500B9
:1006E00025019508750181029501750881010508AC
:1006F000190129059505750191029501750391016F
:100700000507190029FF150026FF009506750881C9
:1007100000C011241FBECFEFDAE0DEBFCDBF04B6AC
:1007200003FE27C08091B7039091B803A091B9034D
:10073000B091BA038730904BA740B04BD1F41092E0
:10074000B7031092B8031092B9031092BA0314BE03
:1007500084B7877F84BF0FB6F894A8958091600016
:10076000886180936000109260000FBEE0E0FFE3BC
:10077000099511E0A0E0B1E0ECE5FBE502C00590D1
:100780000D92AA3DB107D9F723E0AAEDB1E001C06F
:100790001D92A73BB207E1F70E94BA260C94AC2D3C
:1007A0000C9400001092B9008AE08093B80008957C
:1007B00094EA9093BC009091BC0097FFFCCF90917D
:1007C000B900987F983021F0903111F081E00895C0
:1007D0008093BB0084E88093BC008091BC0087FFBD
:1007E000FCCF8091B900887F883111F0803471F797
:1007F00080E0089584E98093BC008091BC0084FD72
:10080000FCCF08958093BB0084E88093BC00809166
:10081000BC0087FFFCCF9091B900987F81E09832AF
:1008200009F480E0089584E88093BC008091BC00C6
:1008300087FFFCCF8091BB00089580B38C7080BB94
:1008400081B3836F81BB089580910001811115C030
:1008500080E40E94D8038093000181110CC082E1E2
:100860000E94020480930001811105C08FEF0E9455
:100870000204809300010E94FA0384B1807F84B94E
:1008800085B1807F85B98AB1837F8AB98BB1837F37
:100890008BB93E98469808950C9499050E94C00A19
:1008A000809300010E9424040E941D04EFE2F2E004
:1008B0008BED91E01192DC0126E01D922150E9F7C9
:1008C000069622E0ED33F207A9F70C948B070E94FD
:1008D000C00A809300010E9424040E941D04EFE2DC
:1008E000F2E0119282E0ED33F807D9F7089596E02F
:1008F000899FF0011124E552FE4F20E030E080E0B6
:1009000041E050E09081992349F0915090832F5F0E
:100910003F4F319626303105A9F70895BA01022ECE
:1009200001C0660F0A94EAF7862BF1CF96E0699F23
:10093000B001112420E030E090E04FE0FC01022EF5
:1009400002C0F595E7950A94E2F7E0FF06C0F901C9
:10095000E60FF71FE552FE4F40832F5F3F4F2630D3
:10096000310561F70895BF92CF92DF92EF92FF9227
:100970000F931F93CF93DF9380910001882379F029
:100980008091DA018F5F8093DA01811108C00E94A3
:10099000C00A80930001811102C00E94520A8FE2B6
:1009A000E82E82E0F82E00E010E0CC24C394D12C95
:1009B000D02F073008F06BC08091000181111BC05F
:1009C00080E40E94D80380930001811112C082E16B
:1009D0000E9402048093000181110BC0C601002E09
:1009E00001C0880F0A94EAF780950E940204809360
:1009F00000010E94FA0380EA8A95F1F78D2F0E9488
:100A00007704B82ED73008F062C0C0910001C11140
:100A100083C080E40E94D80380930001811112C03A
:100A200083E10E9402048093000181110BC081E4E4
:100A30000E94D80380930001811104C00E94130416
:100A4000C82FC0950E94FA03F70180819B2D9095D5
:100A50009823CB21C92B6D2F8C270E949604F70178
:100A6000C1937F010E9424040F5F1F4F0E301105B8
:100A700009F09ECF0E948D0781E0DF91CF911F91F9
:100A80000F91FF90EF90DF90CF90BF9008950A30C4
:100A9000B1F038F4083069F0093071F0209A2898E4
:100AA000AACF0C3091F070F00D30C1F73E9A469805
:100AB000A2CF219A29989FCF229A2A989CCF239A35
:100AC0002B9899CF529A5B9896CF539AFCCFCFB17F
:100AD000C095C170799B18C080E0C82B7C9B16C064
:100AE00080E0C82B7D9B14C080E0C82B7E9B12C089
:100AF00080E0C82B8FB18095881F8827881F82953A
:100B0000880F807EC82BA0CF82E0E7CF84E0E9CFBA
:100B100088E0EBCF80E1EDCFC0E096CFE82FF0E0AA
:100B2000E15DFD4F80810895089580E090E0089593
:100B300008956091FF0270910003809101039091EC
:100B400002030E94991E56985E9825982D98269823
:100B50002E9827982F98823039F0833041F08130D9
:100B600041F4259A2D9A0895269A2E9A0895279A47
:100B70002F9A089581E0089581E008950C94BC05B2
:100B80000E942C182FEF84E39CE02150804090407D
:100B9000E1F700C000000C947520FF920F931F93A3
:100BA000CF93DF938C01FC01C081D18180918E02B3
:100BB00081112DC08281882329F1CE010E947B1DE5
:100BC000F82E682FCE010E94231DBE018F2D0E949A
:100BD000A107EC01B8010E94BE05882361F0B801AD
:100BE000CE010E94030A882331F0B801CE010E9491
:100BF0000F0B81110CC180E0DF91CF911F910F91FC
:100C0000FF900895CE010E944F1DF82EDECFCE0139
:100C10000E947B1DBE01DBCFF8018281882359F33E
:100C20000E94C005E8CFF8018281882321F30E9449
:100C3000AE0FE1CFF80182818823E9F20E94A40F70
:100C4000DACFF80182818823B1F20E94B10ED3CFAE
:100C5000882389F20E94D00ECECF882361F20E94B1
:100C6000E20EC9CFF8018281882329F20E940F0F7A
:100C7000C2CFF8018281882309F4BDCF80E00E94B1
:100C80004D27B9CFF8018281882309F400C10E9461
:100C9000091F811102C00E94E81E0E941C1F90E0E3
:100CA0009093A9038093A803FE01E350FC45E23131
:100CB000F105C0F4E05AF94F8091A8030C945E2D21
:100CC0007E0680068B0682068406860688068A06CD
:100CD0008D068F0691069C06930695069706990643
:100CE0009B069E068091A80381608093A803809153
:100CF000A8030E94201F0E942C187DCF8260F5CF90
:100D00008460F3CF8061F1CF8062EFCF8064EDCF5C
:100D10008068EBCF84608860E8CF8E7FE6CF8D7FE0
:100D2000E4CF8B7FE2CF8F7EE0CF8F7DDECF8F7BD6
:100D3000DCCF8F77DACF8B7F877FD7CF87FB992761
:100D400090F921E0922790FB87F9CFCFF8018281BB
:100D5000882361F0109241020E94192090933E0274
:100D600080933D0282E00E94361545CF0E945D1EB1
:100D700085FF05C081E0809341028093420280910B
:100D8000410281110FC080913D0290913E020E946C
:100D90002520883C910530F486E20E94DA1386E231
:100DA0000E94D51482E00E943D1525CFF801828172
:100DB000882351F0109242020E9419209093400221
:100DC00080933F0280E2CFCF0E945D1E81FF05C06D
:100DD00081E080934102809342028091420281111E
:100DE0000FC080913F02909140020E942520883CD4
:100DF000910530F487E20E94DA1387E20E94D5144D
:100E000080E2D1CFCBEEDDE134C085E337C0C23C18
:100E1000FCE5DF0709F415CF08F051C0C5319CE5AA
:100E2000D907C0F4C230ECE5DE0708F02BCFC115BE
:100E3000FCE5DF0709F4F0CEC130DC4519F5F80117
:100E40008281882309F4D7CE80912C03816080931E
:100E50002C03D1CECF3B9CE5D90709F4E4CEF8F4BE
:100E6000C531DC4579F4F80182818111CBCFC2EF25
:100E7000DDE10E945D1E8A7A41F689E2FE01099554
:100E80000E942A1E81E08093410280934202C801A1
:100E9000DF91CF911F910F91FF900C94BA05C03C48
:100EA0008CE5D80709F4C6CEC13CDC4559F7F801FA
:100EB0008281882309F49FCE0E94990E9CCEC63C65
:100EC000ECE5DE0709F4CECE78F4F8018281C43C6B
:100ED000FCE5DF0709F4C1CE08F4BACE882309F493
:100EE0008ACE0E94F40E87CEC83CECE5DE0709F4FA
:100EF0005DCF08F42BCFCB3C8CE5D80709F4B9CEF5
:100F0000CC3CDC4509F0BECFF8018281882309F48E
:100F100072CE82E0B4CE0C94AA0A0C944C048823BE
:100F200039F090E08A3010F44D96089506970895B0
:100F300087E290E0089508950C949B070C949C0719
:100F40000895972F70E026E0929F600D711D112487
:100F5000FB0194E5899FE00DF11D1124EE0FFF1FA9
:100F6000E455FF4F859194910895FC01EE0FFF1F0A
:100F7000E455FF4F859194910895CF93DF930E949C
:100F8000A1070E945509EC018115904408F091C019
:100F9000C11580E3D80708F005C1C03ED10508F0AF
:100FA00071C0C03CD10508F0E9C0C83AD10580F451
:100FB000C53AD10508F0E9C0C130D10509F46EC0C9
:100FC00020F0C430D10508F069C0C0E0D0E066C0B0
:100FD000CD3BD105D0F7C83AD10509F427C1C93AAC
:100FE000D10509F426C1CA3AD10509F425C1CB3A85
:100FF000D10509F424C1CC3AD10509F423C1CB3B76
:10100000D10509F422C1CC3BD10509F421C1CD3A67
:10101000D10509F420C1C03BD10509F41FC1CE3A66
:10102000D10509F41EC1CF3AD10509F41DC1C13B58
:10103000D10509F41CC1C23BD10509F41BC1C33B56
:10104000D10509F41AC1C43BD10509F419C1C53B46
:10105000D10509F418C1C63BD10509F417C1C73B36
:10106000D10509F416C1C83BD10509F415C1C93B26
:10107000D10509F414C1CA3BD10509F413C1C0E07C
:10108000D4E40CC0CF3FD10509F060F4C03FD105D6
:1010900008F086C0C83ED10508F097CFCE01DF9199
:1010A000CF910895C11520E2D207C0F3CE019F7001
:1010B00068C0C11584E5D807A0F5C11523E5D2079E
:1010C00008F091C0C11581E5D80708F5C11520E5E4
:1010D000D20708F471C0CE0154E0969587955A95D1
:1010E000E1F783709C2F937021E030E002C0220F63
:1010F000331F9A95E2F73C68382BC695C695C370A6
:1011000080E2C89FE0011124C22BD32BC7CFC115A9
:1011100082E5D80708F053C0DC2FCC27C16FD06A16
:10112000BDCFC11526E5D20758F49C2F8827C115DD
:10113000D54508F46CC0EC01CC27DF71D062AECF8E
:10114000C11588E5D80708F440CFC11529E5D207B5
:1011500008F461C0CE0190568115904208F035CF59
:101160008D2F8F710E94D609DD27D06290E0982FD5
:10117000882788279F71C82BD92B90CFCE01805C00
:1011800091090E94B507EC0189CFC53AD10509F450
:1011900047C0C63AD10509F046C0C2E8D0E47ECFC8
:1011A000D0657CCFCE019927D3FF03C0EC01D86C6A
:1011B00075CFEC01D06C72CFDF70D06A6FCFCE01EB
:1011C0008370992721E030E002C0220F331F8A95F7
:1011D000E2F7C695C69580E2C89FE0011124C22BB4
:1011E000D32BDC685BCFCE018370992721E030E000
:1011F00002C0220F331F8A95E2F7C695C69580E29A
:10120000C89FE0011124C22BD32BDA6847CFEC0131
:10121000C46FD06A43CFDC2FCC27C06FD06A3ECFDB
:10122000C1E8D0E43BCFC3E8D0E438CFC2EED4E489
:1012300035CFC9EED4E432CFCAEED4E42FCFC5EB1C
:10124000D4E42CCFC6EBD4E429CFC3EBD4E426CF2F
:10125000C4EBD4E423CFC7EBD4E420CFCCECD4E46C
:101260001DCFCDECD4E41ACFC3E8D5E417CFCAE83C
:10127000D5E414CFC2E9D5E411CFC4E9D5E40ECF4B
:10128000C1E2D6E40BCFC3E2D6E408CFC4E2D6E491
:1012900005CFC5E2D6E402CFC6E2D6E4FFCEC7E270
:1012A000D6E4FCCECAE2D6E4F9CE8238910549F103
:1012B000B0F48133910509F45AC048F4893291059C
:1012C00009F450C08A32910509F456C00895853357
:1012D000910509F442C08933910599F00895833E40
:1012E000910521F138F4803E910581F0823E91050F
:1012F000A1F00895863E910501F1873E910531F1F7
:1013000008952091A8032370E1F508952091A80382
:1013100020FF12C089E390E008952091A80322FFE6
:101320000BC024FF31C080E090E008952091A80315
:1013300022FD2DC024FDF7CF08952091A80323FF9F
:10134000FBCF24FDF0CF87EE90E008952091A80315
:1013500023FFF0CF86EE90E008952091A80325FDAD
:1013600019C008952091A80325FD17C00895209164
:10137000A80326FD15C008952091A80326FD13C0DB
:10138000089580EE90E0089583EE90E0089582EE57
:1013900090E0089589E290E0089585E390E0089553
:1013A0008AE290E0089581E390E0C6CFCF93C82F02
:1013B0000E941C1F90E09093A9038093A80382FFD2
:1013C00006C09C2F9871983079F4C77FC46083FF62
:1013D00006C09C2F9871983171F4C77EC46184FD5A
:1013E000C77E8C2FCF9108959C2F9471943079F7FC
:1013F000CB7FC860ECCF9C2F9471943181F7CB7E6A
:10140000C861EDCF08950F931F93CF938C01FB011B
:101410008281811106C0C1E08C2FCF911F910F9165
:101420000895C0915002C11125C006311C4599F79D
:101430000E94020A81E0809350020E94192090933A
:101440004F0280934E021092430210924502109276
:1014500044021092470210924602109249021092E2
:10146000480210924B0210924A0210924D021092C2
:101470004C02D2CF80914E0290914F020E942520C3
:10148000883C910540F680914302E82FF0E0EE0F92
:10149000FF1FEC5BFD4F118300838F5F809343023E
:1014A000C0E0BACF56985E9825982D9826982E9829
:1014B00027982F988FEF90E0909389008093880071
:1014C00090938B0080938A0090938D0080938C0082
:1014D000259A2D9A2FEF80E792E02150804090408E
:1014E000E1F700C00000269A2E9A2FEF80E792E0E5
:1014F000215080409040E1F700C00000279A2F9AC9
:101500002FEF80E792E0215080409040E1F700C04B
:10151000000025982D982FEF80E792E02150804021
:101520009040E1F700C0000026982E982FEF80E74A
:1015300092E0215080409040E1F700C000002798E1
:101540002F9856985E9825982D9826982E9827982B
:101550002F98089589EA8093800089E08093810024
:1015600024982C983F988AB18F7C8AB96E98479AB4
:101570008BB180638BB9769A0E94520A0C949805BD
:1015800080E2809300018091510281110EC00E947F
:10159000D20381E0809351022FEF83ED90E321503D
:1015A00080409040E1F700C0000080E40E94D80332
:1015B0008093000181112EC00E94020480930001DB
:1015C000811128C00E94020480930001811122C071
:1015D0008FE30E9402048093000181111BC00E94CE
:1015E000FA0380E40E94D80380930001811112C0A5
:1015F0008CE00E9402048093000181110BC00E94C4
:10160000020480930001811105C08FE30E9402044F
:10161000809300010E94FA03809100010895CF9306
:10162000DF93EC01C13080E8D807C8F0FB0182816C
:101630008823A9F080915202811109C08CE090E0CA
:101640000E94642D0E94330B81E0809352020E941D
:101650003A0BCE019F770E94F90B0E94B10B81E0FB
:10166000DF91CF91089580935302682F8CE090E032
:101670000C94782DE0910201F09103018081809318
:101680005D0381FF03C081EE0E94D51480915D034C
:1016900085FF03C085EE0E94D51480915D0380FF15
:1016A00003C080EE0E94D51480915D0384FF03C0C7
:1016B00084EE0E94D51480915D0382FF03C082EE08
:1016C0000E94D51480915D0386FF03C086EE0E94C0
:1016D000D51480915D0383FF03C083EE0E94D5146F
:1016E00080915D0387FF03C087EE0E94D51480912F
:1016F0005302813081F058F0823001F1843031F1B1
:101700008FE39CE90197F1F700C00000089582EE95
:101710000E94DA13F5CF80EE0E94DA1381EE0E9468
:10172000DA1388E10E94DA1388E10E94D51481EE71
:101730000E94D51480EE0E94D514E2CF82EE0E9462
:10174000DA1387E50E94DA1387E5F5CF86EE0E946B
:10175000DA1386EE0E94D51488E10E94DA1388E13C
:10176000EACF809153028130F1F110F0823019F408
:1017700082EE0E94D51480915D0381FF03C081EE4B
:101780000E94DA1380915D0385FF03C085EE0E94FD
:10179000DA1380915D0380FF03C080EE0E94DA13AC
:1017A00080915D0384FF03C084EE0E94DA13809170
:1017B0005D0382FF03C082EE0E94DA1380915D0315
:1017C00086FF03C086EE0E94DA1380915D0383FFDB
:1017D00003C083EE0E94DA1380915D0387FF08C087
:1017E00087EE0C94DA138CE20E94DA138CE2C1CFFC
:1017F0000895EF92FF921F93CF93DF937C01CCE08B
:10180000D0E0C7010C2E02C0969587950A94E2F7A6
:10181000182F1F70812F0E948F070E94DA13812FCB
:101820000E948F070E94D5142497CC3F8FEFD807D2
:1018300041F7DF91CF911F91FF90EF90089588239A
:10184000B9F05198599A5098589A95E09A95F1F7AD
:101850000000509A589895E09A95F1F70000882377
:1018600011F0519A599885E08A95F1F70000089592
:10187000519A5998E8CF8BB18C7F8BB95098589A70
:101880005198599A85E08A95F1F7000008958AB138
:101890008C7F8AB985E08A95F1F70000519A5998B2
:1018A00085E08A95F1F70000509A589885E08A956E
:1018B000F1F7000008955098589A85E08A95F1F75D
:1018C00000005198599A85E08A95F1F70000089533
:1018D000CF93DF93D82FC8E08D2F80780E941F0C04
:1018E000DD0FC150C9F780E00E941F0C85E08A958A
:1018F000F1F7000085E08A95F1F7000080E0DF91C4
:10190000CF9108953BB1242F209523233BB1432B46
:101910003FB7F894FC01680F791FE617F70711F439
:101920003FBF0895819198E04BB9000000C087FF48
:101930002BB9880F000000C000C000C02BB900C048
:101940009A9591F7EACFAF92BF92CF92DF92EF9242
:10195000FF920F931F93CF93DF938C01EB01CFB6D0
:10196000D090BC00F8948091BC008B7F8093BC0029
:101970000E943B0C0E94470C84E80E94680CCC0F2C
:10198000DD1FCC0FDD1F78015801AC0EBD1EEA141F
:10199000FB04A9F40E945B0CCFBED092BC00579A06
:1019A00040E8BE01C801DF91CF911F910F91FF90D8
:1019B000EF90DF90CF90BF90AF900C94820CF70126
:1019C00081917F010E94680CE2CFCF92DF92EF926B
:1019D000FF920F931F93CF93DF93E901662309F4DE
:1019E00069C0E42EF12CEFEFF0E0E61BF109EE9D6B
:1019F0008001EF9D100DFE9D100D1124212FE12F70
:101A0000FF27EE1AFF0A5CE3C52ED12CB6010E9417
:101A1000362DFB01BC01E69EC001E79E900DF69EAF
:101A2000900D1124B6010E94362DE230F105A1F18E
:101A300040F4309779F0319759F180E020E040E0B0
:101A40000CC0E430F10591F168F13597B1F7842FBE
:101A5000861B03C0812F262F210FE42FF0E0ED59C4
:101A6000FB4F4491E22FF0E0ED59FB4F9491E82FAA
:101A7000F0E0ED59FB4FE49149839883EA83DF91CD
:101A8000CF911F910F91FF90EF90DF90CF9008952D
:101A9000812F242F461BE1CF862F810FE42F412F6A
:101AA0002E2FDBCFE42FE61B842FF9CF842F462F78
:101AB000410FD3CF842F242FD0CF88E090E00C9417
:101AC0006C2DAB01BC0188E090E00C948A2DEEE512
:101AD000F3E083E0808310925F038FEF8283838340
:101AE00060915E0370915F03809160039091610348
:101AF0000C94610D80915E0380FF06C06FE070E082
:101B000086E693E00C94A30CE6E6F3E011821082E3
:101B10001282349683E0E23AF807C1F7EFCFE6E6A7
:101B2000F3E0818360834283349693E0E23AF907DD
:101B3000C1F70C947A0DEF92FF920F931F93CF93FE
:101B4000DF9300D000D0CDB7DEB7182FE92EF62EE8
:101B5000042F80915E0390915F03A0916003B09188
:101B600061038093620390936303A0936403B09333
:101B7000650380915E0380FF1FC09E012F5F3F4F72
:101B8000812F9E2D0E94E50C8091620310FB87F946
:101B9000809362031695809163038078812BE0FA2D
:101BA00087F980936303F0926403009365034B818C
:101BB00069818A810E948F0D0F900F900F900F9076
:101BC000DF91CF911F910F91FF90EF9008956F9249
:101BD0007F928F929F92AF92BF92CF92DF92EF92BD
:101BE000FF920F931F93CF93DF93EC01662E742E19
:101BF00080915E0380FF8EC0982F9E77923079F59A
:101C0000CE010E949B0D80915E039C2FC0FB87F943
:101C100080935E03969580915F038078892BD0FB3B
:101C200087F980935F036092600370926103609113
:101C30005E0370915F038091600390916103DF9177
:101C4000CF911F910F91FF90EF90DF90CF90BF90B9
:101C5000AF909F908F907F906F900C94610DE82FC4
:101C6000E695EF739EE39E0F9F73943018F4709087
:101C70006103C9CF9AE39E0F9F73993070F4881F58
:101C80008827881F90915F03292F220FC22FC82B0E
:101C900097FB992790F9D92FB6CF87E28E0F8F73D4
:101CA0008A3008F0B0CFF0E07997E0FF31C02FEF35
:101CB000EE7FE45BFC4F859194916FE070E00E94B1
:101CC000362D26035001279FB00C11247E0188E990
:101CD000E81A8EEFF80A06E613E082EAC82E83E0DF
:101CE000D82E98E6892E99249394C701B4010E94B6
:101CF000362D9801472D662D0E94E50CEA0CFB1C41
:101D00000C5F1F4FC016D10681F70E947A0D7BCF62
:101D100021E0CECFDF91CF911F910F91FF90EF90F7
:101D2000DF90CF90BF90AF909F908F907F906F90FB
:101D30000895EEE5F3E02081221F2227221F309133
:101D40005F03432F440F842F822B37FB992790F991
:101D50000C9668E671E00E944A2D438162810C94E2
:101D6000E70D20915E03221F2227221F30915F037F
:101D7000432F440F842F822B37FB992790F98C3007
:101D8000910544F4845A9E4F409161036091600331
:101D90000C94E70D0C9768E671E00E944A2DF4CF91
:101DA000EEE5F3E08081881F8827881F90915F030C
:101DB000292F220F97FB992790F943816FEF822BF0
:101DC0000C94E70DEEE5F3E08081881F8827881FDB
:101DD00090915F03292F220F97FB992790F9438158
:101DE00060E0822B0C94E70D40916103842F90E01A
:101DF000843F910594F4445F80915E03881F882797
:101E0000881F90915F03292F220F97FB992790F944
:101E100060916003822B0C94E70D4FEFEDCF409162
:101E20006103842F90E00C9794F04C5080915E03F6
:101E3000881F8827881F90915F03292F220F97FB07
:101E4000992790F960916003822B0C94E70D40E094
:101E5000EDCF90915E0390FF42C09178811126C032
:101E6000926090935E0360915E0370915F03809136
:101E70006003909161030E94610D80915E03982F31
:101E80009E779230D9F410926902881F8827881FA4
:101E900090915F03292F220F97FB992790F940918A
:101EA000610360916003822B0C94E70D833210F084
:101EB0009464D7CF8F73880F982BD3CF982F969594
:101EC0009F732EE3290F2F73273120F491E0909315
:101ED0006902DBCF995D9F739A30B8F6D4CF08952D
:101EE00080912C03816080932C0381E080936A02AF
:101EF0000E94091F811104C00E94E81E0E94670D04
:101F00000E945D0D60935E0370935F038093600396
:101F1000909361036E7761F40E94670D0E945D0DDE
:101F200060935E0370935F038093600390936103FB
:101F300081E08093690280915E0380FF04C08695F2
:101F40008F730C94290F089580915E0386958F738B
:101F50008F5F833208F081E00C94290F80915E033B
:101F6000982F909590FB80F980935E0360915E03BB
:101F700070915F0380916003909161030E94610DF5
:101F800080915E0380FF04C086958F730C94290FA7
:101F9000109269022FEF80E792E02150804090403C
:101FA000E1F700C000000C947A0DCF93C82F809108
:101FB0006702909168020E942520EC2FF0E0E15A20
:101FC000FC4FE491F0E08E179F0718F10E94192052
:101FD0009093680280936702E0916602F0E0ED5909
:101FE000FC4F449180915E03881F8827881F909141
:101FF0005F03292F220F97FB992790F960916003C7
:10200000822B0E949B0D8091660290E00196809346
:102010006602CF910895CF93C82F8091640290916A
:1020200065020E942520EC2FF0E0E45AFC4FE49179
:10203000F0E08E179F07E8F00E9419209093650248
:102040008093640240916103609160038091620219
:10205000909163020E949B0D8091620290916302B5
:10206000019668E671E00E94362D9093630280939A
:102070006202CF910895CF92DF92FF920F931F9348
:10208000CF93DF93F82E80916002909161020E94BD
:102090002520EF2DE695F0E0E45AFC4FE491F0E0C6
:1020A0008E179F07A8F10E941920909361028093D8
:1020B000600206E613E0C0E0D0E088E6C82EDD242A
:1020C000D39480915E0290915F028C0F9D1FB601A8
:1020D0000E94362D980140916103609160030E9437
:1020E000E50C68960C5F1F4FC83681E0D80749F7AA
:1020F0000E947A0D80915E0290915F02F0FE10C006
:102100000196BE010E94362D90935F0280935E027D
:10211000DF91CF911F910F91FF90DF90CF900895A5
:102120000197F2CFAF92BF92CF92DF92EF92FF92E0
:102130000F931F93CF93DF93C82F80FF71C0FF24AD
:10214000FA9480915C0290915D020E942520C695D0
:10215000EC2FF0E0E75AFC4FE491F0E08E179F0778
:1021600008F453C00E94192090935D0280935C0292
:10217000C6E6D3E000E010E097E0C92ED12C19822A
:1021800018821A8287E0A82EB12CE12C80915B0284
:102190008E0D87FD815F082E000C990B081719071B
:1021A000E9F4209161032A9DC0012B9D900D11241B
:1021B000B6010E944A2D462F80915E03881F882712
:1021C000881F90915F03592F550F97FB992790F91E
:1021D0009E0160916003852B0E94E50CEF0C81E06D
:1021E000A81AB10899F60F5F1F4F24960F301105FA
:1021F00031F60E947A0D80915B0291E0F91215C0D0
:10220000811111C08EE080935B02DF91CF911F910D
:102210000F91FF90EF90DF90CF90BF90AF90089517
:10222000FF24F3948ECF8150EECF90E00196B80159
:102230000E944A2DE8CFBF92CF92DF92EF92FF9299
:102240000F931F93CF93DF93CDB7DEB7EC970FB605
:10225000F894DEBF0FBECDBF182F80915902909128
:102260005A020E942520E12FF0E0EA5AFC4FE49147
:10227000F0E08E179F0708F47AC00E94192090930F
:102280005A02809359028E010F5F1F4FE12CF12CEF
:102290006801D80111961C9211971C9212961C92FB
:1022A000B12C9091010180915802B99E800D1124AA
:1022B0008F300CF08EE087FD80E0082E000C990B2B
:1022C000E816F906A1F480915E03881F8827881F0D
:1022D00090915F03592F550F97FB992790F998011B
:1022E0004091610360916003852B0E94E50CB394DB
:1022F000B7E0BB12D6CFEFEFEE1AFE0A0C5F1F4F0E
:10230000FFE0EF16F10429F626E633E009E010E0DD
:102310009FE0E92EF12CC801B7010E944A2DFC0173
:10232000EE0FFF1FEE0FFF1FEC0DFD1D8181D90188
:1023300011968C93119780818C93828112968C9345
:102340000F5F1F4F2C5F3F4F0831110521F70E948F
:102350007A0D90910101809158029130E1F48A3F09
:10236000B4F489EF809358028FEF80930101EC96CB
:102370000FB6F894DEBF0FBECDBFDF91CF911F9196
:102380000F91FF90EF90DF90CF90BF900895815014
:1023900080935802ECCF86312CF085E1809358026F
:1023A00081E0E3CF8F5FF4CFEF92FF920F931F9303
:1023B000CF93DF9380915602909157020E9425207F
:1023C000883E9340D0F10E94192090935702809349
:1023D0005602C0915402D09155022196C170DD275A
:1023E000D0935502C093540286E6E82E83E0F82E7F
:1023F00010E008E7812F8695FE01E80FF11DCF015F
:102400008170992797014091610360916003FC01FD
:102410000E9FC0010F9F900D11240E94E50C1F5FBD
:10242000F4E0EF0EF11C1F3029F7DF91CF911F91DF
:102430000F91FF90EF900C947A0DDF91CF911F9147
:102440000F91FF90EF90089580916902882391F198
:1024500090915E03892F86958F732EE3280F2F733B
:10246000243018F482500C94D50F2AE3280F2F73D0
:10247000233018F486500C940B1027E3280F2F7389
:10248000263018F489500C943B1021E3280F2F7349
:10249000263018F48F500C9492102BE2280F2F73D3
:1024A000233018F485510C941B119E77903311F44E
:1024B0000C94D41108959093700280936F02089544
:1024C000E0916F02F0917002309721F00190F0815D
:1024D000E02D099480E00895E0916F02F091700280
:1024E000309721F00280F381E02D09940895E09166
:1024F0006F02F0917002309721F00480F581E02D99
:102500000994089520916D0230916E0228173907C1
:1025100071F090936E0280936D02E0916F02F091E2
:102520007002309721F00680F781E02D099408951C
:1025300020916B0230916C022817390771F090934B
:102540006C0280936B02E0916F02F0917002309701
:1025500021F00084F185E02D0994089508950C94EC
:10256000AE120E9410200E944E040E9497200C94EC
:10257000700FBF92CF92DF92EF92FF920F931F9353
:10258000CF93DF93CDB7DEB72A970FB6F894DEBFAF
:102590000FBECDBF0E94B30482E7C82E82E0D82EC2
:1025A00000E010E0B02E802F0E948E05E82EF6018C
:1025B000F1906F018F1116C00F5F1F4F0E30110584
:1025C00089F78FEF89838A831B820E94192081609B
:1025D000782F9D838C8349815A816B818D810E94E4
:1025E000981338C080912C0381FD0E94940580E0EF
:1025F00090E0FE242F2D30E0482FB901082E02C0B4
:10260000759567950A94E2F760FF41C08E83BF829B
:1026100081E090E06C0102C0CC0CDD1C4A95E2F731
:102620002E2D30E02C213D21232B09F480E08887DA
:102630000E9419208160782F9A8789874E815F8157
:1026400068858A850E949813F801EE58FD4F8081B5
:102650008C2580830E9426220E9460129091710234
:102660008917D9F00E946012809371022A960FB6E2
:10267000F894DEBF0FBECDBFDF91CF911F910F91B8
:10268000FF90EF90DF90CF90BF900C949E07019643
:102690008630910509F0B0CF8FCF2A960FB6F89407
:1026A000DEBF0FBECDBFDF91CF911F910F91FF9085
:1026B000EF90DF90CF90BF900895DC0111962C91A0
:1026C00011978C91682F70E041E050E001C0440FF9
:1026D0008A95EAF712968C91129730E08823D9F008
:1026E00080918F028823E9F086E0829FF001839F2A
:1026F000F00D1124E60FF71FEE0FFF1FEC5EFE4FEB
:10270000808191818D939C93F901E058FD4F8081E8
:10271000482B40830895F901E058FD4F90819423A0
:1027200019F7F901E058FD4F409580814823F1CF1A
:10273000CF93DF93CDB7DEB72B970FB6F894DEBFFC
:102740000FBECDBF942F4F83252F588769877A8777
:102750008B874A855B85452B39F02F3F19F481E043
:102760009F3F19F080E001C081E080FD04C0CE01F0
:1027700007960E945D13DE01119686E0FD0111921D
:102780008A95E9F785E0FE01379601900D928A95CA
:10279000E1F749815A816B817C818D819E810E9404
:1027A000F51A2B960FB6F894DEBF0FBECDBFDF91A2
:1027B000CF910895CF93C82F882309F4F4C08238AD
:1027C000B9F40E94601281FDEEC069E380910201BC
:1027D000909103010E94821F0E942A1E69E380914A
:1027E0000201909103010E948D1FCF910C942A1E2B
:1027F000833879F40E94601280FDD5C063E5809132
:102800000201909103010E94821F0E942A1E63E52B
:10281000E6CF843879F40E94601282FDC4C067E478
:1028200080910201909103010E94821F0E942A1E42
:1028300067E4D5CF8CEF8C0F813A68F48C2F0E941F
:1028400061248111B0C06C2F80910201909103012D
:102850000E94821FCACF80E28C0F883048F4C77074
:1028600081E001C0880FCA95EAF70E94601EBDCFC3
:102870008BE58C0F833078F4C53A39F0C63A41F0D5
:1028800083E890E0CF910C94821281E890E0FACF37
:1028900082E890E0F7CF88E58C0F853108F083C09F
:1028A000C83A09F441C0C93A09F441C0CA3A09F426
:1028B00041C0CB3A09F441C0CC3A09F441C0CB3B0A
:1028C00009F441C0CC3B09F441C0CD3A09F441C000
:1028D000C03B09F441C0CE3A09F441C0CF3A09F4F3
:1028E00041C0C13B09F441C0C23B09F441C0C33BF4
:1028F00009F441C0C43B09F441C0C53B09F441C0DF
:10290000C63B09F441C0C73B09F441C0C83B09F4C8
:1029100041C0C93B09F441C0CA3B09F441C080E051
:1029200090E0CF910C94981282EE90E0FACF89EE6D
:1029300090E0F7CF8AEE90E0F4CF85EB90E0F1CF16
:1029400086EB90E0EECF83EB90E0EBCF84EB90E072
:10295000E8CF87EB90E0E5CF8CEC90E0E2CF8DEC18
:1029600090E0DFCF83E891E0DCCF8AE891E0D9CF37
:1029700082E991E0D6CF84E991E0D3CF81E292E081
:10298000D0CF83E292E0CDCF84E292E0CACF85E25D
:1029900092E0C7CF86E292E0C4CF87E292E0C1CF57
:1029A0008AE292E0BECFCF910895882309F45DC0FA
:1029B0008238B1F40E94601281FF57C069E38091B0
:1029C0000201909103010E94821F0E942A1E69E366
:1029D00080910201909103010E948D1F0C942A1E88
:1029E000833879F40E94601280FF3FC063E58091D4
:1029F0000201909103010E94821F0E942A1E63E53A
:102A0000E7CF843879F40E94601282FF2EC067E419
:102A100080910201909103010E94821F0E942A1E50
:102A200067E4D6CF9CEF980F913A10F4682FD0CF7F
:102A300090E2980F983050F4877091E001C0990FA0
:102A40008A95EAF7892F0E94661EC8CF9BE5980FEA
:102A5000933020F480E090E00C948212885A853103
:102A600020F480E090E00C9498120895882321F0DF
:102A70000E94601E0C942A1E0895882321F00E9453
:102A8000661E0C942A1E08958F929F92AF92BF9259
:102A9000DF92EF92FF920F931F93CF93DF937C010E
:102AA000D62FC72FFC01058102950F7012811111DD
:102AB0000E947F1E0E94231ED82E882371F01123AE
:102AC00039F180E28D0F883018F182E00E940C1EEF
:102AD0000E94231E91E0D82ED926BC2EB2948FE0FE
:102AE000B8228B2D90E0FC01E858FA4E0C945E2D34
:102AF0008A158A15C915C91500163C16A217B815EE
:102B00007E16B8151C171C179917B815B815C217DB
:102B1000D12CE3CF8C2F807FCF70882311F0C2950A
:102B2000C07F1123A9F0CC2359F080E28D0F8830AB
:102B300010F0D11109C08C2F0E94601E0E942A1E25
:102B40008D2F0E94DA1314C08C2F0E94711EF6CFB5
:102B50008D2F0E94D514CC2359F080E28D0F883040
:102B600010F0D11112C08C2F0E94661E0E942A1EE6
:102B700098E0B91609F4FBC0B91608F458C086EFFE
:102B80008B0D823008F053C0F2C08C2F0E94771E4C
:102B9000EDCF8C2F807FCF70803211F0C295C07F37
:102BA000DD2339F0D130E9F0112321F10023E9F0E0
:102BB000C7CF112359F08C2F011103C00E94361585
:102BC000D7CF0130D9F70E94931ED2CF011106C092
:102BD0000E94961E8C2F0E943D15CACF0130C1F76E
:102BE000C7CF112321F0023018F68C2FE7CF011147
:102BF000BFCFF0CF002371F38D2F0E94D514B8CF33
:102C00008C2F86958695837059F0813009F0B0CF6E
:102C1000112379F18D2F9C2F93700E94981207C079
:102C2000112321F18D2F9C2F93700E948212DD20A1
:102C300009F4C1C10E94FF1D80FDBDC1F7011282D0
:102C40000E94F91D0E94871CC7010E94E7170E947D
:102C5000F91DDF91CF911F910F91FF90EF90DF90C1
:102C6000BF90AF909F908F900C94A81C80E090E054
:102C7000DCCF80E090E0D1CF112309F1D53F99F06E
:102C8000D63FB9F0D43F49F48091A2039091A303B9
:102C900081609093A3038093A2038D2F0E942F2124
:102CA0000E941B22C4CF8091A2039091A303826053
:102CB000F0CF8091A2039091A3038460EACFD53F27
:102CC00089F0D63FA9F0D43F49F48091A2039091B6
:102CD000A3038E7F9093A3038093A2038D2F0E9462
:102CE0009721DECF8091A2039091A3038D7FF2CF35
:102CF0008091A2039091A3038B7FECCF8C2F8370E4
:102D000009F04CC0111133C02D2F22952695277044
:102D1000220F220F6D2F6F70862E912CA12CB12CBB
:102D2000022E04C0880C991CAA1CBB1C0A94D2F762
:102D3000D4FF22C06FE070E080E090E004C0660F36
:102D4000771F881F991F2A95D2F7609570958095F7
:102D50009095C695C695C370C23091F0C0F46829AD
:102D600079298A299B29C130B1F00E943D1C0E941B
:102D700060120E949E075BCF60E070E0CB01E9CF5C
:102D8000682979298A299B290E944F1CF0CF0E942B
:102D90003D1CC501B4010E942B1CE9CF1123C1F1D8
:102DA0008C2F8170882319F32D2F2295269527705B
:102DB000220F220F6D2F6F70862E912CA12CB12C1B
:102DC000022E04C0880C991CAA1CBB1C0A94D2F7C2
:102DD000D4FF20C06FE070E080E090E004C0660F98
:102DE000771F881F991F2A95D2F760957095809557
:102DF0009095C695C695C370C23081F0B0F468292D
:102E000079298A299B29C130A1F00E94FE1CAFCFED
:102E10008695C8CF60E070E0CB01EBCF68297929B7
:102E20008A299B290E94101DA2CF0E94FE1CC50169
:102E3000B4010E94EC1C9BCF8D2F90E0FC01E05E62
:102E4000F109E531F10508F060C0E75DF84E0C943A
:102E50005E2D3E173E173E173E173E173E173E1794
:102E60003E173E173E173E173E173E173E173E17BA
:102E70003E174B1758175F1766177017DF708C2FA8
:102E80008F71112321F00E94871C8D2F97CE0E94F5
:102E9000A81C8D2FA0CE112339F0011169CE8C2FE3
:102EA0008F710E94CB1C64CE023008F061CEF7CF48
:102EB000112339F08C2F8F710E94871C59CE11235A
:102EC000C9F38C2F8F710E94A81C52CE112329F0B8
:102ED0008C2F8F710E94721C4BCE0E946D1C48CEAD
:102EE000112349F0CF718C2F0E94871C63E08C2F37
:102EF0000E94031E3DCE81E00E940C1E023008F4A9
:102F000037CE82E00E940C1E33CE112319F000232D
:102F100089F216CE0023A9F2D93309F06DCEFFEF66
:102F200027EE83E0F15020408040E1F700C0000030
:102F300063CE4C2F4F706D2FC7010E9495050E94E4
:102F40009E1B75CED23F39F160F4D03F99F0D13F4E
:102F500051F1002301F18D2F112351F10E94DA1359
:102F600011C0D43FD9F0A8F0D53F99F711110AC08C
:102F700081E006C0112331F080918F0291E0892712
:102F800080938F024C2F4F706D2FC7010E94A007B6
:102F9000EFCD81E0182710938F02F4CF1111F2CFFB
:102FA00010928F02EFCF0023B1F31111EBCFE4CFDA
:102FB0000E94D514E7CFDF91CF911F910F91FF9021
:102FC000EF90DF90BF90AF909F908F9008950F93F8
:102FD0001F93CF93DF93EC01988189812B813C81F2
:102FE000232B39F08F3F19F481E09F3F19F080E0E7
:102FF00001C081E080FD13C0CE010E94CD05882371
:1030000071F0688179818A810E94C81D8C010E94BB
:10301000221D0E94191CB801CE010E944415DF91A7
:10302000CF911F910F9108950E947F1E0E94901EC4
:1030300080910201909103010E94981F0E942A1E14
:103040000E94C9220E941B2280E090E00E9482120E
:1030500080E090E00C9498120E946E1E0C9414185C
:103060000E94BD1DE92FE295EF704E2F50E0FA014E
:103070003297EE30F105D8F4E05CF74E0C945E2DFB
:103080004E184E18571857185918571857185718D8
:103090004E184E185E18571857185E18803F19F0D2
:1030A00020F4803E20F481E00895843FE1F380E045
:1030B0000895803EC0F3813FD1F7F5CF93FB882779
:1030C00080F90895CF93DF9300D000D01F92CDB741
:1030D000DEB70F900F900F900F900F90DF91CF9170
:1030E0000895CF93DF9300D000D000D0CDB7DEB7E6
:1030F00026960FB6F894DEBF0FBECDBFDF91CF91FD
:1031000008951F93CF93DF93C091900216E08091B2
:103110009102C81304C0DF91CF911F910895D0E0B0
:103120001C9FF0011D9FF00D1124EE56FD4F4081B4
:10313000518162817381848195810E9471182196E9
:10314000C770E5CF4091C2025091C3026091C402A2
:103150007091C5028091C6029091C7020C947118BB
:103160001F93CF93DF938091C70282958F70D1F424
:103170008091C4028823B1F080919002D091910295
:10318000B091C202C091C3024091C5025091C602E3
:10319000A1E0BF3F09F0A0E0BA016095709516E08C
:1031A0008D1304C0DF91CF911F91089541155105F2
:1031B000D9F1CF3FD9F120E090E020FD3CC0189F2D
:1031C000F001199FF00D1124EE56FD4F21812C13B3
:1031D00032C020812B132FC0228121112CC02381CA
:1031E00034812417350720F1241B350B283C310589
:1031F00010F52091C7022F7020612093C70226E0AE
:10320000289FF001299FF00D1124E956FD4F808180
:103210008F708061808382EC92E00E94E717DF91DB
:10322000CF911F910C94811821E0C6CF2A2FC4CFD3
:10323000260F371FDBCF01968770B2CFAF92BF92B8
:10324000CF92DF92EF92FF920F931F93CF93DF9372
:10325000CDB7DEB761970FB6F894DEBF0FBECDBF16
:103260008C0185E0F801DE011D9601900D928A9592
:10327000E1F7D8014C9111965C9111971296EC9060
:103280003091C2026091C3028091C5029091C60242
:10329000009739F06F3F19F421E03F3F19F020E02B
:1032A00001C021E0B22FB170BB2E20FD90C1F8010A
:1032B000C380D480A090C402AA2009F432C1209116
:1032C000C702C816D90610F1D601A81BB90BCD014B
:1032D000FF24F394883C9105F0F0F12C207F09F055
:1032E000E9C07C2DD98AC88A6E2D89890E9462180E
:1032F00082EC92E00E94E717E2ECF2E086E0DF0168
:103300001D928A95E9F70E94A2181EC0809590959B
:103310008C0D9D1DDDCF822F807F09F084C0651349
:1033200025C0341323C0FE2CE11020C02F70206173
:103330002093C7020E94A21882EC92E00E94E71735
:103340008091C702F80185838F2D61960FB6F8949E
:10335000DEBF0FBECDBFDF91CF911F910F91FF90C8
:10336000EF90DF90CF90BF90AF900895CD2839F0C7
:103370005F3F19F481E04F3F19F080E001C081E028
:1033800080FD24C081E08E25F82FF170FF2E80FF94
:103390003FC0809190022091910236E0821318C0C4
:1033A0004D875E878D859E850E94BD1D292F2295A4
:1033B0002F70223008F1243030F59F7009F1D801C8
:1033C00015969C91907FE1F4FB2CBECF80E0DCCF82
:1033D00090E0389FF001399FF00D1124EE56FD4F1B
:1033E0006181561306C06081641303C06281E612D6
:1033F0000FC001968770D2CF9F7011F0882321F300
:10340000805E883008F3C8010E94E717BF2CDCCF2C
:10341000FE2CEE2009F498CF8091C7028160809342
:10342000C702F12C91CF651314C0341312C0E11000
:1034300010C08091C702F8018583C8010E94E71778
:1034400086E0F801A2ECB2E001900D928A95E1F7D6
:103450005ACF4D875E878D859E850E9430188823C0
:1034600009F4BFC0EE2009F4BCC02091C702822F2E
:1034700082958F7090E0029774F08091C2029091D3
:10348000C30298878F831986DB86CA862C87CE0174
:1034900007960E94E71786E0F801A2ECB2E00190DF
:1034A0000D928A95E1F70E94B0180E94A218FF249D
:1034B000F3944ACF651314C0341312C0E11010C046
:1034C0008091C702F8018583C8010E94E71786E052
:1034D000E2ECF2E0DF011D928A95E9F7FA2C34CF95
:1034E0004D875E878D859E850E943018882309F45C
:1034F00078C0EE2009F475C02091C702822F829512
:103500008F7090E002973CF28091C2029091C302CA
:103510009A8389831B82DD82CC822E83CE01019621
:10352000B8CFC816D90680F0F601E81BF90BCF0119
:10353000883C910570F0F12C7C2DD98AC88A6E2DBB
:1035400089890E946218D8CE809590958C0D9D1D1A
:10355000EFCFFE2CEE2009F444C0651327C03413CE
:1035600025C08091C70280FD18C0982F92959F704A
:10357000292F30E02115310581F0D80115968C9363
:1035800015972F30310509F458CF9F5F9295907FA2
:103590008F70892B15968C9350CF86E0F801A2ECA2
:1035A000B2E001900D928A95E1F7CECE4D875E870D
:1035B0008D859E850E94301881116DCF8091C70244
:1035C00081608093C702C8010E94E717BDCEEE203C
:1035D00041F04D875E878D859E850E943018811150
:1035E0005ACFC8010E94E71762CF1F93CF93DF9392
:1035F000CDB7DEB72C970FB6F894DEBF0FBECDBFA8
:103600004F83588769877A878B879C87CE01079677
:103610000E941E19882349F19F8188852A853B8550
:10362000232B39F08F3F19F481E09F3F19F080E0A0
:1036300001C081E080FD08C04F81588569857A8589
:103640008B859C850E94711816E080919002909164
:103650009102891343C02C960FB6F894DEBF0FBEBB
:10366000CDBFDF91CF911F91089586E0FE0137967F
:10367000DE01119601900D928A95E1F79F81888570
:103680002A853B85232B39F08F3F19F481E09F3F3A
:1036900019F080E001C081E080FDD6CF2091910239
:1036A00030E0C9010196877099274091900250E05F
:1036B00084179507A9F196E0929FD001939FB00DD2
:1036C0001124AE56BD4FFE01319601900D929A9590
:1036D000E1F7809391020E948118B6CF819FC001CB
:1036E00011248E569D4F0E941E19882309F4B3CFD2
:1036F000E09190021E9FF0011124EE56FD4F408193
:10370000518162817381848195810E9471188091B9
:10371000900290E00196877099278093900295CF50
:103720000E942C181092910210929002E2ECF2E0AA
:1037300086E0DF011D928A95E9F78DCFEF92FF9227
:103740000F931F93CF93DF938C01892B81F0F12C82
:10375000EE24E394E8012196F8018491843770F413
:10376000843008F062C08130B1F08230B1F1DF9175
:10377000CF911F910F91FF90EF900895853709F435
:103780004FC008F43FC09CE7980F903780F78F77C1
:103790000E94D5144CC00E5F1F4FFE01849190E231
:1037A000980F983060F48770FE2D01C0FF0F8A9546
:1037B000EAF78F2F0E94821E0E942A1E02C00E94DA
:1037C000DA138F2D882309F4C5CFEFE9FFE0319795
:1037D000F1F700C000008150F5CF0E5F1F4FFE01D2
:1037E000849190E2980F983050F48770FE2D01C0BC
:1037F000FF0F8A95EAF78F2F0E94881EDDCF0E9467
:10380000D514DFCF0E5F1F4FFE01C491CC23C9F248
:103810008FE99FE00197F1F700C00000C150F6CF9B
:103820000E5F1F4FFE01F490CCCF0E94DA138E0181
:10383000C8CF089508950C941A1C0E941B1C609315
:1038400003037093040380930503909306030C9481
:1038500014180C941D1C0F931F93009103031091D7
:1038600004032091050330910603602B712B822BFA
:10387000932B1F910F910C941D1C0F931F9300917C
:103880000303109104032091050330910603602384
:103890007123822393231F910F910C941D1C0F936E
:1038A0001F930091030310910403209105033091AD
:1038B000060360277127822793271F910F910C948D
:1038C0001D1C0E941A1C6093FF02709300038093DA
:1038D0000103909302030C94141860E070E0CB0194
:1038E0000C94611C0F931F9341E050E060E070E086
:1038F0008A019B0104C0000F111F221F331F8A95EC
:10390000D2F7C901B8011F910F910C94611C0F935C
:103910001F9341E050E060E070E004C0440F551F89
:10392000661F771F8A95D2F78091FF02909100035E
:10393000A0910103B09102038A019B01082B192B6E
:103940002A2B3B2BC901B8011F910F910C94611CCC
:103950000F931F9341E050E060E070E004C0440F1B
:10396000551F661F771F8A95D2F7CB01BA01609564
:103970007095809590950091FF0210910003209121
:1039800001033091020360237123822393231F914B
:103990000F910C94611C0F931F9341E050E060E085
:1039A00070E004C0440F551F661F771F8A95D2F739
:1039B0008091FF0290910003A0910103B091020356
:1039C0008A019B01082719272A273B27C901B8012B
:1039D0001F910F910C94611C0F931F930091FF0294
:1039E000109100032091010330910203602B712B91
:1039F000822B932B1F910F910C94611C0F931F939B
:103A00000091FF0210910003209101033091020305
:103A100060237123822393231F910F910C94611CC7
:103A20000F931F930091FF02109100032091010357
:103A30003091020360277127822793271F910F91EE
:103A40000C94611C0895E92FEE0FE90FEE0F8E0F15
:103A5000982F977041E001C0440F9A95EAF7869538
:103A60008695869595E0899FF0011124E853FD4FD6
:103A700020E030E070E05081CB01022E02C096952C
:103A800087950A94E2F7817081958527842385279D
:103A900081932F5F3F4F2530310569F70895292F16
:103AA000220F290F220F820F982F977086958695E7
:103AB000869545E0849F9001112460E070E080E0ED
:103AC000F901E60FF71FE853FD4F408150E0092E42
:103AD00002C0569547950A94E2F741705527062E85
:103AE00001C0440F0A94EAF7842B6F5F7F4F653063
:103AF000710531F70895BF92CF92DF92EF92FF9256
:103B00000F931F93CF93DF938C01C090FF02D0904F
:103B10000003E0900103F090020380910303909171
:103B20000403A0910503B0910603C82AD92AEA2A02
:103B3000FB2ACFE1D0E0BC2ED701C6010C2E04C079
:103B4000B695A795979587950A94D2F780FD0EC0F4
:103B5000219788F7B12C8B2DDF91CF911F910F9179
:103B6000FF90EF90DF90CF90BF900895B8018C2F19
:103B70000E94BD07019761F3EECFCF93DF93EC0175
:103B80000E947B1DBE010E94BD07DF91CF91089569
:103B90001F93CF93DF93EB0190918E02992339F01D
:103BA000CB010E94BD1DDF91CF911F910895882305
:103BB00069F0CB010E947B1D182F682FCE010E9457
:103BC000231DBE01812F0E94BD07EDCFCB010E94B6
:103BD0004F1D182FF6CF682F80910201909103019D
:103BE0000C94821F682F80910201909103010C9424
:103BF0008D1F809107038595859585950895809102
:103C000007038770089598E0899F90011124622B23
:103C1000609307030C94871C2091070380958223EF
:103C200080930703982F977069F430E0482F082E8F
:103C3000000C550B2417350729F08595859585953A
:103C40000C94A81C089590910703977081E009F4E3
:103C500080E00895E0910201F091030180912B032F
:103C60008083E0910201F0910301808190912A0309
:103C7000892B8083E0910201F09103018081909172
:103C80002903892B808390910803992381F0E09187
:103C90000201F09103018081892B808380910201D0
:103CA000909103010E94251F8111109208038091B9
:103CB0000201909103010C946C1280912B030895E2
:103CC00090912B03892B80932B030895982F909527
:103CD00080912B03892380932B03089510922B034B
:103CE000089590912A03892B80932A030895982F91
:103CF000909580912A03892380932A030895109236
:103D00002A03089590912903892B8093290308950C
:103D1000982F9095809129038923809329030895F2
:103D200010922903089580930803089510920803C0
:103D30000895CF92DF92EF92FF926C01EE24FF2460
:103D4000C114D104E104F10409F440C0C701B60173
:103D500020E1C72ED82EE92EFF24C114D104E1049E
:103D6000F10419F0285FC701B6016B017C0154E032
:103D7000F694E794D794C7945A95D1F7C114D10417
:103D8000E104F10419F02C5FC701B6016B017C015D
:103D900042E0F694E794D794C7944A95D1F7C114BA
:103DA000D104E104F10419F02E5FC701B601969524
:103DB000879577956795672B682B692B09F02F5F9F
:103DC000822FFF90EF90DF90CF90089520E0C1CF39
:103DD0006DEE7EEF80E090E00E94962D60E082E044
:103DE00090E00E94782D60E083E090E00E94782DC2
:103DF00060E084E090E00E94782D60E085E090E053
:103E00000E94782D40E050E0BA0188E090E00C94E8
:103E10008A2D80E090E00E94722D21E08D3E9E4F21
:103E200009F020E0822F089582E090E00C94642D48
:103E300083E090E00C94642D84E090E00C94642D79
:103E4000682F84E090E00C94782DFC0131969C0161
:103E5000205E3F4F80E0919191118F5FE217F30751
:103E6000D1F708959C01FC0132969FEF80E04191CB
:103E7000461751F09F3F19F4411101C0982F8F5FF1
:103E80008E31A9F79F3F09F40895290F311D97FD41
:103E90003A95F901628308959C01225E3F4FFC012F
:103EA0004281461301C01282019682179307B9F727
:103EB0000895262F2695269526952F3169F0FC0129
:103EC000E20FF11D677021E030E001C0220F6A951A
:103ED000EAF78181822B81830895262F26952695E6
:103EE00026952F3171F0FC01E20FF11D677021E082
:103EF00030E001C0220F6A95EAF7209581812823DE
:103F00002183089520911301222329F02091A803F1
:103F100027FD0C94591F0C94321F2091130122236A
:103F200029F02091A80327FD0C946D1F0C944C1FC1
:103F3000FC01319680961192E817F907E1F7089590
:103F40008091AE03843039F110922D0320E488E192
:103F500090E00FB6F894A895809360000FBE209370
:103F6000600080E00E949E0783B7817F846083BFEA
:103F700083B7816083BF7894889583B78E7F83BF32
:103F80000FB6F894A89580916000886180936000D6
:103F9000109260000FBE08950895CF930E946704A9
:103FA0000E94B3040E94CC1FC0E08C2F0E948E059B
:103FB000811105C0CF5FCE30C1F7CF91089581E068
:103FC000FCCF0E942C180E9460120C949E071F9236
:103FD0000F920FB60F9211248F939F93AF93BF93BD
:103FE00080912D03811113C08091A4039091A503AA
:103FF000A091A603B091A7034196A11DB11D809386
:10400000A4039093A503A093A603B093A703BF9125
:10401000AF919F918F910F900FBE0F901F901895A9
:1040200082E084BD93E095BD9AEF97BD80936E00CA
:1040300008952FB7F8948091A4039091A503A091BF
:10404000A603B091A7032FBF0895CF92DF92EF92FE
:10405000FF920F931F932FB7F8944091A4035091B0
:10406000A5036091A6037091A7032FBF6A017B018E
:10407000EE24FF248C0120E030E0C016D106E206D9
:10408000F30650F0481B590BCA011F910F91FF9086
:10409000EF90DF90CF90089541505109F3CF78947D
:1040A0001F920F920FB60F9211248F939F93AF938D
:1040B000BF938091A4039091A503A091A603B09112
:1040C000A7030196A11DB11D8093A4039093A5039E
:1040D000A093A603B093A703BF91AF919F918F9137
:1040E0000F900FBE0F901F9018950E940729F8940B
:1040F0002FEF87EA91E6215080409040E1F700C021
:10410000000087E090EBDC018093B7039093B80345
:10411000A093B903B093BA039CE088E10FB6F8947A
:10412000A895809360000FBE90936000FFCF0E941F
:10413000091F811102C00E94E81E0E94141F809373
:104140002C030E941C1F90E09093A9038093A80366
:104150000E94181F682F70E080E090E00C94291CEA
:104160008091310380FF12C06091070185E0689F54
:10417000B00111247595679575956795603871053F
:10418000A8F56115710581F581E0089581FF09C0E9
:104190006091070185E0689FB001112475956795CE
:1041A000EDCF82FF07C06091070185E0689FB001F5
:1041B0001124E4CF909132039923A1F0609106017C
:1041C000961788F72091070185E0289F9001112418
:1041D000929FA001939F500D112470E0CA010E948C
:1041E0004A2DCCCF65E070E0862F08958FE70895C3
:1041F0008091310380FF0CC06091050170E07595DE
:104200006795759567956115710539F581E0089594
:1042100081FF06C06091050170E075956795F3CF49
:1042200082FF08C06091050170E06038710558F3A5
:104230008FE7089580913203882369F0609104012B
:10424000861780F790910501899FC001112470E0C5
:104250000E944A2DEACF61E070E0862F0895803FEA
:1042600031F40E94B0208195809335030895813FF9
:1042700019F40E94B020F8CF823F31F40E94B020A0
:104280008195809334030895833F19F40E94B020F0
:10429000F8CF893F29F40E94F820809336030895CF
:1042A0008A3F21F40E94F8208195F7CF8B3F31F4AB
:1042B0000E94F82081958093370308958C3F19F46C
:1042C0000E94F820F8CF843F31F48091330381605D
:1042D000809333030895853F21F4809133038260F6
:1042E000F7CF863F21F4809133038460F1CF873F7D
:1042F00021F4809133038860EBCF883F21F48091D3
:1043000033038061E5CF8D3F31F4809131038160CB
:104310008093310308958E3F21F4809131038260B0
:10432000F7CF8F3FB9F7809131038460F1CF803FA1
:10433000C1F48091350387FD1092350380913403D9
:1043400081110EC08091350381110AC0809136031E
:10435000811106C080913703811102C0109232038F
:104360000895813F29F48091350318162CF3E6CF88
:1043700090913403823F29F497FFE0CF10923403E9
:10438000DDCF833F19F41916CCF3D8CF893F39F428
:1043900080913603181694F610923603CFCF8A3FD9
:1043A00029F48091360387FFC9CFF6CF8B3F39F4CC
:1043B0008091370387FFC2CF10923703BFCF8C3F66
:1043C00029F4809137031816BCF3B8CF843F31F439
:1043D000809133038E7F80933303B0CF853F21F4E8
:1043E000809133038D7FF7CF863F21F48091330393
:1043F0008B7FF1CF873F21F480913303877FEBCF11
:10440000883F21F4809133038F7EE5CF8D3F31F4D7
:10441000809131038E7F8093310390CF8E3F21F4C2
:10442000809131038D7FF7CF8F3F09F087CF809147
:1044300031038B7FF0CF83E393E00E9477120E94D9
:10444000192090932F0380932E0308951F93CF93E9
:10445000DF9380912E0390912F030E942520AC01C1
:10446000909132039923D1F02091080130E0421756
:10447000530780F080913403C0913503D091360307
:1044800010913703811111C0C1117FC0D1117DC0BE
:1044900011117BC0DF91CF911F91089520913003BE
:1044A0008AE0289F90011124E2CF9F3F19F09F5F7F
:1044B00090933203181624F40E94B02080933403A2
:1044C0008091340387FF05C00E94B02081958093BE
:1044D00034031C1624F40E94B0208093350380918D
:1044E000350387FF05C00E94B02081958093350376
:1044F00060913403662331F1C0913503CC2311F16F
:10450000062E000C770B880B990B0E943D2C23E3A1
:1045100033E343E35FE30E94A12C0E94052C6093E8
:1045200034036C2FCC0F770B880B990B0E943D2C1A
:1045300023E333E343E35FE30E94A12C0E94052CB5
:10454000609335031D1624F40E94F82080933603EF
:104550008091360387FF05C00E94F82081958093E3
:104560003603111624F40E94F820809337038091BB
:10457000370387FF05C00E94F82081958093370399
:10458000DF91CF911F910C941B229F3F09F08FCF99
:10459000A0CFE3E3F3E085E0DF011D928A95E9F720
:1045A00010923203109231030895833081F128F480
:1045B000813059F08230D1F00895853009F449C036
:1045C000B8F1863009F456C0089580913003262F43
:1045D00030E0280F311D2F3F310524F4680F609320
:1045E000300308958FEF8093300308958091080180
:1045F000262F30E0280F311D2F3F310524F4680F9E
:104600006093080108958FEF8093080108958091C9
:104610000701262F30E0280F311D2F3F310524F4EC
:10462000680F6093070108958FEF80930701089545
:1046300080910601262F30E0280F311D2F3F3105D4
:1046400024F4680F6093060108958FEF80930601AC
:10465000089580910501262F30E0280F311D2F3F4E
:10466000310524F4680F6093050108958FEF80935E
:104670000501089520910401862F90E0820F911D7D
:104680008F3F910524F4620F6093040108958FEF2A
:10469000809304010895833011F128F4813049F0AA
:1046A000823091F00895853081F120F18630C1F19A
:1046B000089580913003681720F4861B809330039F
:1046C000089510923003089580910801681720F42E
:1046D000861B809308010895109208010895809127
:1046E0000701681720F4861B809307010895109234
:1046F0000701089580910601681720F4861B8093B6
:104700000601089510920601089580910501681729
:1047100020F4861B809305010895109205010895E9
:1047200080910401681720F4861B8093040108958A
:104730001092040108950F931F9341E050E060E050
:1047400070E08A019B0104C0000F111F221F331F5C
:104750008A95D2F7C901B8010E94291C1F910F91B7
:104760000C942C18873208F04CC08E3108F098C099
:10477000803109F487C0E0F4873009F474C028F46C
:10478000863009F466C080E008958B3009F45FC07C
:104790008E30C9F780912C0382FB992790F921E094
:1047A000922790FB82F980932C0382FD26C04FC094
:1047B000863109F44CC080F4813129F70E942C180D
:1047C0008091A80387FB992790F921E0922790FB1D
:1047D00087F98093A8033BC08931C9F18B3199F6E1
:1047E00080912C0381FB992790F921E0922790FB7F
:1047F00081F980932C0381FF2AC080912C03816072
:104800003EC0883321F148F4893229F0853319F00C
:10481000873209F0B8CF80E007C08334E1F338F481
:104820008A3308F4B0CF89530E949B2310C0883488
:1048300009F0A9CF0E942C182FEF83ED90E32150AF
:1048400080409040E1F700C000000E94752081E0A8
:10485000089580912C03817F8E7F80932C0381E0CB
:1048600080933903089580912C03982F909590FBA5
:1048700080F980932C0380FDEACF897F877F809326
:104880002C03E5CF80912C0383FB992790F921E03D
:10489000922790FB83F980932C0383FDAECFD7CF73
:1048A0008D51C2CF80E008950C9452248E518A30ED
:1048B00030F4E82FF0E0E454FE4F8081089580E06A
:1048C0000895CF93C82F809139038130E1F038F0FB
:1048D000823009F43FC01092390380E012C0E091A9
:1048E0000201F09103018081813111F08232A9F738
:1048F0008C2F0E94542481111DC08C2F0E94B22342
:104900008170CF910895E0910201F09103018081BF
:10491000813171F3823261F38C2F0E945224811114
:1049200010C0C43181F048F4CB3059F0C03171F07F
:1049300080E0E6CF81E090E0E3CFC93221F0C833D8
:10494000B9F781E0DDCF10923903F2CF82E0809396
:104950003903F7CFC93219F188F4C43101F120F4D9
:10496000C73081F181E0CDCF82EE8C0F8630D0F759
:104970008C2F0E94562480933803F4CFCE3401F15B
:1049800020F4CB3479F76AE005C0C13599F0C2351F
:1049900049F761E0809138030E94D522E3CF8091EE
:1049A0003803882319F010923803DCCF81E080931C
:1049B0003903A7CF61E0809138030E944B23D2CF07
:1049C0006AE0F9CF1092300384E180930801C0932C
:1049D00007018CE38093060188E08093050188E25B
:1049E00080930401BFCF80915A0308950F931F93C2
:1049F000CF93DF9300D01F92CDB7DEB78C010E941A
:104A00005D27823011F0843019F583E089831B83A0
:104A10000A838093E9008FEF9091E800815095FD23
:104A200006C095ED9A95F1F700008111F5CF8091C0
:104A3000E80085FF0DC040E050E063E070E0CE018B
:104A400001960E947A278091E8008E778093E80093
:104A50000F900F900F90DF91CF911F910F910895BC
:104A6000CF93DF9300D01F92CDB7DEB72091AE0376
:104A7000243031F522E02983805891099B838A8371
:104A800083E08093E9008FEF9091E800815095FDDD
:104A900006C095ED9A95F1F700008111F5CF809150
:104AA000E80085FF0DC040E050E063E070E0CE011B
:104AB00001960E947A278091E8008E778093E80023
:104AC0000F900F900F90DF91CF910895CF93DF93C8
:104AD000EC010E945D27823011F08430F9F482E00D
:104AE0008093E9008FEF9091E800815095FD06C01A
:104AF00095ED9A95F1F700008111F5CF8091E800CE
:104B000085FF0CC040E050E065E070E0CE010E94FF
:104B10007A278091E8008E778093E800DF91CF912B
:104B20000895CF93DF93EC010E945D27823011F04E
:104B3000843079F580911301882371F18091A80365
:104B400087FF2AC084E08093E9008FEF9091E8000E
:104B5000815095FD06C095E19A95F1F7000081110D
:104B6000F5CF8091E80085FF14C040E050E060E29E
:104B700070E0CE010E947A278091E8008E778093C2
:104B8000E80080E2FE01AAE3B3E001900D928A956D
:104B9000E1F7DF91CF91089581E08093E9008FEFF5
:104BA0009091E800815095FD06C095ED9A95F1F73A
:104BB00000008111F5CF8091E80085FFEACF40E049
:104BC00050E068E070E0D5CF8091AD03811109C05D
:104BD0000E9407290E9464298091E20084608093EA
:104BE000E20008951092AD030895089508950C947D
:104BF000E11F42E061EC81E00E94842842E061EC28
:104C000082E00E94842842E061EC83E00E948428D4
:104C100042E261EC84E00C9484288091B0038330FC
:104C200009F455C030F4813071F1823009F491C03B
:104C300008958A3009F47DC08B3009F463C089304F
:104C400009F044C08091AF03813209F03FC08091E8
:104C5000B3039091B403009711F00397B9F58091D5
:104C6000E800877F8093E8008091E80082FF2AC0F7
:104C70008091F10080935A038091E8008B778093B4
:104C8000E8000C94B9288091AF03813AF9F480913F
:104C9000E800877F8093E8008091B3039091B4038C
:104CA000892B61F460E28AE393E070E00E94C927F7
:104CB0008091E8008B778093E800089560E080E0C1
:104CC00090E0F3CF8091AE038111CECF0895809113
:104CD000AF03813AD9F78091B3039091B403892B44
:104CE000A9F78091E800877F8093E8008091E80031
:104CF00080FFFCCF809113018093F1008091E80048
:104D00008E77BDCF8091AF03813201F78091B303DD
:104D10009091B403892BD1F68091E800877F80932E
:104D2000E8000E94B9288091B103809313010C948C
:104D30002C188091AF03813249F68091E800877F7B
:104D40008093E8000E94B9288091B20380935B03AE
:104D500008958091AF03813A09F0B8CF8091E800BF
:104D6000877F8093E8008091E80080FFFCCF8091EE
:104D70005B03C2CF84B7877F84BF0FB6F894A89532
:104D800080916000886180936000109260000FBE87
:104D900080E880936100109261000E94AF120E942F
:104DA00007290E9464298091E20084608093E200D8
:104DB00078940E94E92B0E94B11289E091E00E9450
:104DC0005B128091AE03853029F00E94B9120E94D7
:104DD0002412F7CF0E94A01F8091AC03882389F38F
:104DE0000E94CD1F882369F30E946427EACF292FF0
:104DF00033272330310579F158F421303105F1F0B2
:104E00002230310519F180E090E020E030E01AC056
:104E10002132310599F122323105A9F7643098F732
:104E200070E0FB01EE0FFF1FE653FE4F2081318142
:104E30006A537E4FFB01808190E004C082E190E0E4
:104E400024E036E0FA013183208308958DE690E076
:104E500027E935E0F7CF99278130910561F028F0F7
:104E6000029789F6E3E6F5E002C0E3E9F5E0849114
:104E700090E09F01E7CFEBE7F5E0F9CF643008F071
:104E8000C2CFE62FF0E0EE0FFF1FEE52FE4F208163
:104E9000318189E090E0D6CF0895CF93C82F0E944A
:104EA0004C27C0935C03CF9108958091AE0384306A
:104EB00011F081E0089582E0089580915C038111F2
:104EC00002C00C945527089580E189BD82E189BD17
:104ED00009B400FEFDCF8091D8008F7D8093D8006B
:104EE0008091E00082608093E0008091E00081FD8D
:104EF000FCCF0895AF92BF92DF92EF92FF920F9393
:104F00001F93CF93DF93EC018B017A010E94D82885
:104F1000D82E811124C0E114F10439F0F701808109
:104F20009181081B190BC80FD91FA12CB12C011599
:104F30001105A9F08091E80085FD22C08091E8006C
:104F40008E778093E800E114F104A1F0F7018081ED
:104F50009181A80EB91EB182A08285E0D82E8D2D38
:104F6000DF91CF911F910F91FF90EF90DF90BF9055
:104F7000AF9008950E94D8288823C9F2D82EEFCF89
:104F800089918093F10001501109FFEFAF1ABF0A18
:104F9000CECF2091B5033091B60326173707A8F07E
:104FA0006115710529F42091E8002E772093E8001F
:104FB000FC0120E06115710551F4211108C08091B8
:104FC000E80082FF33C080E00895B901F1CF8091FD
:104FD000AE038823B9F18530B9F18091E80083FDF3
:104FE0002FC08091E80082FDEACF8091E80080FF29
:104FF000E1CF2091F3008091F20090E0922B6115B7
:10500000710519F08830910550F021E0089709F0FA
:1050100020E08091E8008E778093E800CBCF21914B
:105020002093F100615071090196E9CF8091AE03A0
:10503000882341F0853041F08091E80083FFBFCFA5
:1050400081E0089582E0089583E008952091B503FA
:105050003091B60326173707A8F06115710529F4BA
:105060002091E8002E772093E800FC0120E06115F4
:10507000710551F4211108C08091E80082FF34C00D
:1050800080E00895B901F1CF8091AE038823C1F18A
:105090008530C1F18091E80083FD30C08091E80047
:1050A00082FDEACF8091E80080FFE1CF2091F300FC
:1050B0008091F20090E0922B6115710519F0883013
:1050C000910550F021E0089709F020E08091E80078
:1050D0008E778093E800CBCF24912093F100319616
:1050E000615071090196E8CF8091AE03882341F0A9
:1050F000853041F08091E80083FFBECF81E00895C4
:1051000082E0089583E00895982F973028F08F70FB
:105110008093E90081E008959093E900981751F099
:105120007091EC002091ED005091F00021FD06C03F
:105130009F5FEBCF242F762F50E0F8CF3091EB001C
:105140003E7F3093EB003091ED003D7F3093ED00DA
:105150003091EB0031603093EB007093EC002093C2
:10516000ED005093F0002091EE0027FDE1CF80E0AC
:1051700008958091AF0387FF13C08091E80082FFFC
:1051800006C08091E8008B778093E80004C080918E
:10519000AE038111F2CF08958091AE038823D9F335
:1051A0008091E80080FFF8CF8091E8008E77ECCF07
:1051B0002091E4003091E50085E69091EC0090FDAF
:1051C00020C09091E80092FD20C09091AE039923F9
:1051D00091F0953091F09091EB0095FD10C04091C9
:1051E000E4005091E5004217530739F381509A01CA
:1051F00021F784E0089582E0089583E0089581E036
:1052000008959091E80090FFE0CF80E008950E941B
:1052100075290E947D29E0EEF0E080818160808325
:10522000E8EDF0E080818F77808319BCA7EDB0E0D6
:105230008C918E7F8C9380818F7E80831092AD03C2
:1052400008950F931F93CF93DF930E9475290E94B7
:105250007D29C8EDD0E088818F7788838881806838
:10526000888388818F7D888319BC1092AE03109249
:10527000AA031092AC031092AB0300EE10E0F80109
:1052800080818B7F808388818160888342E060E0B9
:1052900080E00E948428E1EEF0E080818E7F8083B0
:1052A000E2EEF0E08081816080838081886080838D
:1052B000F80180818E7F8083888180618883DF917F
:1052C000CF911F910F910895E8EDF0E080818F7EDE
:1052D0008083E7EDF0E080818160808384E082BF9D
:1052E00081E08093AD030C942129E8EDF0E080810A
:1052F0008E7F80831092E20008951092DA0010925F
:10530000E10008951F920F920FB60F9211242F9370
:105310003F934F935F936F937F938F939F93AF933D
:10532000BF93EF93FF938091E10082FF0BC08091C8
:10533000E20082FF07C08091E1008B7F8093E10053
:105340000E94E82B8091DA0080FF19C08091D8007C
:1053500080FF15C08091DA008E7F8093DA00809103
:10536000D90080FF94C080E189BD82E189BD09B484
:1053700000FEFDCF81E08093AE030E94E425809182
:10538000E10080FF19C08091E20080FF15C080918C
:10539000E2008E7F8093E2008091E2008061809342
:1053A000E2008091D80080628093D80019BC85E02B
:1053B0008093AE030E94F6258091E10084FF29C00E
:1053C0008091E20084FF25C080E189BD82E189BD32
:1053D00009B400FEFDCF8091D8008F7D8093D80066
:1053E0008091E1008F7E8093E1008091E2008F7ECA
:1053F0008093E2008091E20081608093E2008091DE
:10540000AA03882309F449C084E08093AE030E9474
:10541000F7258091E10083FF29C08091E20083FF9E
:1054200025C08091E100877F8093E10082E0809336
:10543000AE031092AA038091E1008E7F8093E10079
:105440008091E2008E7F8093E2008091E200806193
:105450008093E20042E060E080E00E948428809136
:10546000F00088608093F0000E94F525FF91EF9195
:10547000BF91AF919F918F917F916F915F914F916C
:105480003F912F910F900FBE0F901F90189519BC50
:105490001092AE030E94F22572CF8091E30087FD47
:1054A00002C081E0B2CF83E0B0CF1F920F920FB65F
:1054B0000F9211242F933F934F935F936F937F939A
:1054C0008F939F93AF93BF93CF93EF93FF93C0912D
:1054D000E900CF708091EC001092E9008091F0001B
:1054E000877F8093F00078940E94912A1092E900BF
:1054F0008091F00088608093F000C093E900FF91F4
:10550000EF91CF91BF91AF919F918F917F916F91CB
:105510005F914F913F912F910F900FBE0F901F9071
:1055200018951F93CF93DF93CDB7DEB7AA970FB629
:10553000F894DEBF0FBECDBFEFEAF3E08091F1003B
:10554000819323E0E73BF207C9F70E940D26809183
:10555000E80083FF44C08091AF039091B003492FCE
:1055600050E04A30510508F03AC0FA01E654F54DD2
:105570000C945E2DC42AE82AEF2AE82AEF2A432B4E
:10558000662BEF2ABB2BC82B803879F0823839F58F
:105590008091B3038F708093E9008091EB0085FBCD
:1055A000882780F91092E90006C08091AB039091A2
:1055B000AC03911182609091E800977F9093E8008E
:1055C0008093F1001092F1008091E8008E772DC059
:1055D000282F2D7F21F48823D1F0823059F180913A
:1055E000E80083FF0AC08091E800877F8093E8008D
:1055F0008091EB0080628093EB00AA960FB6F8943E
:10560000DEBF0FBECDBFDF91CF911F910895809176
:10561000B103813021F7933009F080E08093AC032F
:105620001092E9008091E800877F8093E8000E9453
:10563000B928D5CF8091B1038111F2CF8091B30306
:105640008F7069F28093E9002091EB0020FFE8CF92
:10565000933031F48091EB0080628093EB00E0CFD7
:105660009091EB0090619093EB0021E030E001C05D
:10567000220F8A95EAF72093EA001092EA008091BF
:10568000EB008860EACF8111AACF1091B1031F7798
:105690008091E3008078812B8093E3008091E80083
:1056A000877F8093E8000E94B9288091E80080FFFE
:1056B000FCCF8091E30080688093E300111104C067
:1056C00082E08093AE038BCF83E0FBCF80588230A3
:1056D00008F085CF8091B1039091B2038C3D23E017
:1056E0009207A1F583E08A838AE289834FB7F89411
:1056F000DE01139620E03EE051E2E32FF0E050930C
:105700005700E49120FF03C0E295EF703F5FEF7018
:105710008E2F90E0EA30C0F0C7968D939D932F5F57
:10572000243159F74FBF8091E800877F8093E800CC
:105730006AE270E0CE0101960E94C9278091E800DC
:105740008B778093E8004BCFC096E7CFAE014F5FD9
:105750005F4F6091B3030E94F726BC01892B09F4C7
:105760003ECF9091E800977F9093E80089819A81DD
:105770000E942628E3CF803809F031CF8091E800DD
:10578000877F8093E8008091AA038093F1001CCF6B
:10579000811125CF9091B103923008F020CF8091F4
:1057A000E800877F8093E8009093AA030E94B928BD
:1057B0008091AA03882311F084E005C08091E30062
:1057C00087FDFACF81E08093AE030E94F92507CFD1
:1057D0000895CF938091AE03882399F0C091E9009A
:1057E000CF708091EC0080FD0EC080E0C82B10923D
:1057F000E9008091E80083FD0E94912ACF70C09358
:10580000E900CF91089580E8F1CF0E940C2C6894B4
:10581000B1110C949B2C08950E94802C88F09F5706
:1058200098F0B92F9927B751B0F0E1F0660F771FC4
:10583000881F991F1AF0BA95C9F714C0B13091F0BA
:105840000E949A2CB1E008950C949A2C672F782F1F
:105850008827B85F39F0B93FCCF38695779567957F
:10586000B395D9F73EF490958095709561957F4FEB
:105870008F4F9F4F0895E89409C097FB3EF4909591
:105880008095709561957F4F8F4F9F4F9923A9F019
:10589000F92F96E9BB279395F695879577956795A8
:1058A000B795F111F8CFFAF4BB0F11F460FF1BC0EC
:1058B0006F5F7F4F8F4F9F4F16C0882311F096E97F
:1058C00011C0772321F09EE8872F762F05C066232D
:1058D00071F096E8862F70E060E02AF09A95660FE6
:1058E000771F881FDAF7880F9695879597F908959F
:1058F00057FD9058440F551F59F05F3F71F0479581
:10590000880F97FB991F61F09F3F79F08795089565
:10591000121613061406551FF2CF4695F1DF08C084
:10592000161617061806991FF1CF869571056105A1
:1059300008940895E894BB2766277727CB0197F949
:1059400008950E94B42C0C94252D0E94172D38F038
:105950000E941E2D20F0952311F00C940E2D0C9416
:10596000142D11240C949B2C0E94782C70F3959F7D
:10597000C1F3950F50E0551F629FF001729FBB2746
:10598000F00DB11D639FAA27F00DB11DAA1F649FE2
:105990006627B00DA11D661F829F2227B00DA11D95
:1059A000621F739FB00DA11D621F839FA00D611D1B
:1059B000221F749F3327A00D611D231F849F600D3C
:1059C000211D822F762F6A2F11249F5750409AF065
:1059D000F1F088234AF0EE0FFF1FBB1F661F771FF1
:1059E000881F91505040A9F79E3F510580F00C94BC
:1059F0000E2D0C949B2C5F3FE4F3983ED4F38695D8
:105A000077956795B795F795E7959F5FC1F7FE2B5B
:105A1000880F911D9695879597F9089597F99F6737
:105A200080E870E060E008959FEF80EC0895002426
:105A30000A941616170618060906089500240A94F3
:105A400012161306140605060895092E0394000C79
:105A500011F4882352F0BB0F40F4BF2B11F460FF08
:105A600004C06F5F7F4F8F4F9F4F0895AA1BBB1BD2
:105A700051E107C0AA1FBB1FA617B70710F0A61B4E
:105A8000B70B881F991F5A95A9F780959095BC016F
:105A9000CD01089597FB072E16F4009407D077FDEB
:105AA00009D00E94362D07FC05D03EF490958195D3
:105AB0009F4F0895709561957F4F0895EE0FFF1FDA
:105AC0000590F491E02D0994F999FECF92BD81BD26
:105AD000F89A992780B50895A6E1B0E044E050E037
